:020000040800F2
:1000000008080020450100085904000851040008B0
:1000100055040008DD020008D105000800000000BA
:100020000000000000000000000000007D04000847
:10003000E1020008000000005B04000869050008F8
:100040005F0100085F0100085F0100085F01000810
:100050005F0100085F0100085F0100085F01000800
:100060005F0100085F0100085F0100085F010008F0
:100070005F0100085F0100085F0100085F010008E0
:100080005F0100085F0100085F0100085F010008D0
:100090005F0100085F0100085F0100085F010008C0
:1000A0005F0100085F0100085F0100085F010008B0
:1000B0005F0100085F0100085F0100085F010008A0
:1000C0005F0100085F0100085F0100085F01000890
:1000D0005F0100085F0100085F0100085F01000880
:1000E0005F0100085F0100085F0100085F01000870
:1000F0005F0100085F0100085F0100085F01000860
:100100005F0100085F0100085F0100085F0100084F
:100110005F0100085F0100085F0100085F0100083F
:100120005F0100085F0100085F0100085F0100082F
:10013000DFF80CD000F018F800480047F30500087D
:10014000080800200648804706480047FEE7FEE70B
:10015000FEE7FEE7FEE7FEE7FEE7FEE7FEE7FEE777
:100160007105000831010008064C074D06E0E06803
:1001700040F0010394E8070098471034AC42F6D3EE
:10018000FFF7DAFF080600082806000810B54FF44C
:1001900000710E4800F058F9052000F0AFF84FF458
:1001A00000710A4800F052F94FF48071074800F0DE
:1001B0004DF9052000F0A2F84FF48071034800F0DB
:1001C00043F9052000F09AF810BD0000000C014032
:1001D00010B54FF480710C4800F036F94FF40071FF
:1001E000094800F031F9052000F088F84FF400715B
:1001F000054800F02BF9052000F080F84FF48071DD
:10020000014800F023F910BD000C014008B50121A0
:10021000042000F023F94FF44070ADF800000320F3
:100220008DF8020010208DF803006946014800F0A7
:1002300080F808BD000C014070B5044600254FF45D
:1002400000711B4800F000F9052000F057F800BFCE
:1002500023E004F08000012804D10102144800F0DA
:10026000F5F804E04FF48071114800F0EDF801203A
:1002700000F044F84FF400710D4800F0E7F8052055
:1002800000F03CF86006040E4FF40071084800F0DE
:10029000DBF8052000F032F86D1C082DD9DB4FF497
:1002A0000071034800F0D2F8052000F027F870BD77
:1002B000000C014070B505460C46FFF767FF1E2095
:1002C000FFF7BAFF2846FFF7B7FF200AFFF7B4FF92
:1002D000E0B2FFF7B1FFFFF77BFF70BD00BFFEE7A5
:1002E000704700000448006820B103480068401EC1
:1002F000014908607047000000000020014601EB42
:10030000C1024FF0E0235A6101221A6100229A6172
:1003100000BF4FF0E022106900F001021AB100F4B2
:100320008032002AF5D000224FF0E0231A619A6152
:1003300070472DE9F04102460025002600200023E9
:100340000024002791F803C00CF00F0591F803C0BA
:100350000CF0100CBCF1000F03D091F802C04CEA75
:10036000050591F800C0BCF1000F31D014680020E1
:100370002BE04FF0010C0CFA00F3B1F800C00CEACE
:1003800003069E4220D183004FF00F0C0CFA03F7B6
:10039000BC4305FA03FC4CEA040491F803C0BCF129
:1003A000280F06D14FF0010C0CFA00FCC2F814C063
:1003B0000AE091F803C0BCF1480F05D14FF0010CE1
:1003C0000CFA00FCC2F810C0401C0828D1D31460FD
:1003D000B1F800C0BCF1FF0F34DD546800202EE0FE
:1003E00000F1080C4FF0010808FA0CF3B1F800C056
:1003F0000CEA03069E4221D183004FF00F0C0CFA49
:1004000003F7BC4305FA03FC4CEA040491F803C06B
:10041000BCF1280F05D100F1080C08FA0CF8C2F85D
:10042000148091F803C0BCF1480F07D100F1080C0B
:100430004FF0010808FA0CF8C2F81080401C082898
:10044000CED35460BDE8F0814161704701617047CF
:1004500000BFFEE700BFFEE77047704729B1064ABC
:1004600092690243044B9A6104E0034A9269824311
:10047000014B9A617047000000100240704710B5B0
:1004800000F002F810BD00000CB5002001900090B3
:100490003348006840F480303149086000BF30487C
:1004A000006800F4003000900198401C0190009812
:1004B00018B90198B0F5A06FF1D12948006800F48F
:1004C000003010B10120009001E000200090009861
:1004D000012843D12348006840F0100021490860FA
:1004E0000846006820F0030008600846006840F0F5
:1004F000020008601A484068194948600846406888
:1005000048600846406840F480604860084640689B
:1005100020F47C1048600846406840F4E8104860C9
:100520000846006840F08070086000BF0C48006812
:1005300000F000700028F9D00948406820F003005E
:10054000074948600846406840F00200486000BF24
:100550000348406800F00C000828F9D10CBD0000E9
:10056000001002400020024010B5FFF7BBFE10BD96
:1005700010B51348006840F00100114908600846B2
:100580004068104908400E494860084600680E4916
:1005900008400B4908600846006820F48020086085
:1005A0000846406820F4FE0048604FF41F00886051
:1005B000FFF765FF4FF000600449086010BD0000C0
:1005C000001002400000FFF8FFFFF6FE08ED00E01B
:1005D00000BFFEE702E008C8121F08C1002AFAD1D6
:1005E00070477047002001E001C1121F002AFBD1B3
:1005F00070474FF40044FFF709FE21461F20FFF724
:1006000059FE00BFFEE70000280600080000002099
:1006100004000000D40500082C0600080400002097
:0C06200004080000E405000800000000D1
:0400000508000131BD
:00000001FF
